:020000040000FA
:060000000A128A11FC2F18
:100EB000F201F301831603138601831203138601E3
:100EC0000130831603138800831203138801F32F64
:100ED000831203130803031D6E2F6F2F8A2F113007
:100EE00086002130F1007630F000F00B752FF10B09
:100EF000752F00008312031388014130F100EE309A
:100F0000F000F00B812FF10B812F00000130F20077
:100F10000030F3000230831203130806031D912FE3
:100F2000922FAD2F223086002130F1007630F00074
:100F3000F00B982FF10B982F0000831203138801F8
:100F40004130F100EE30F000F00BA42FF10BA42F94
:100F500000000130F2000030F3000430831203136C
:100F60000806031DB42FB52FD02F44308600213042
:100F7000F1007630F000F00BBB2FF10BBB2F00001F
:100F80008312031388014130F100EE30F000F00BC2
:100F9000C72FF10BC72F00000130F2000030F30023
:100FA0000830831203130806031DD72FD82FF32F01
:100FB000883086002130F1007630F000F00BDE2F13
:100FC000F10BDE2F00008312031388014130F10082
:100FD000EE30F000F00BEA2FF10BEA2F00000130A9
:100FE000F2000030F300720873040319F82FF92F90
:100FF000682F0A128A11002883010A128A11582FB9
:00000001FF
