:020000040000FA
:060000000A128A11FC2F18
:100EB800F201F301831603138601831203138601DB
:100EC8000130831603138800831203138801F32F5C
:100ED800831203130803031D722F732F8D2F1130F4
:100EE8008600C330F100CD30F000F00B792FF10B04
:100EF800792F8312031388014130F100EE30F0009E
:100F0800F00B842FF10B842F00000130F200003029
:100F1800F3000230831203130806031D942F952F44
:100F2800AF2F22308600C330F100CD30F000F00B37
:100F38009B2FF10B9B2F8312031388014130F10083
:100F4800EE30F000F00BA62FF10BA62F00000130B9
:100F5800F2000030F3000430831203130806031D67
:100F6800B62FB72FD12F44308600C330F100CD30D3
:100F7800F000F00BBD2FF10BBD2F83120313880176
:100F88004130F100EE30F000F00BC82FF10BC82F04
:100F980000000130F2000030F30008308312031320
:100FA8000806031DD82FD92FF32F88308600C330A9
:100FB800F100CD30F000F00BDF2FF10BDF2F8312A3
:100FC800031388014130F100EE30F000F00BEA2FF6
:100FD800F10BEA2F00000130F2000030F300720834
:100FE80073040319F82FF92F6C2F0A128A1100289D
:080FF80083010A128A115C2F2B
:00000001FF
